{
  "_format": "hh-sol-artifact-1",
  "contractName": "BoxV1",
  "sourceName": "contracts/Box.sol",
  "abi": [
    {
      "anonymous": false,
      "inputs": [
        {
          "indexed": false,
          "internalType": "address",
          "name": "previousAdmin",
          "type": "address"
        },
        {
          "indexed": false,
          "internalType": "address",
          "name": "newAdmin",
          "type": "address"
        }
      ],
      "name": "AdminChanged",
      "type": "event"
    },
    {
      "anonymous": false,
      "inputs": [
        {
          "indexed": true,
          "internalType": "address",
          "name": "beacon",
          "type": "address"
        }
      ],
      "name": "BeaconUpgraded",
      "type": "event"
    },
    {
      "anonymous": false,
      "inputs": [
        {
          "indexed": false,
          "internalType": "uint8",
          "name": "version",
          "type": "uint8"
        }
      ],
      "name": "Initialized",
      "type": "event"
    },
    {
      "anonymous": false,
      "inputs": [
        {
          "indexed": true,
          "internalType": "address",
          "name": "previousOwner",
          "type": "address"
        },
        {
          "indexed": true,
          "internalType": "address",
          "name": "newOwner",
          "type": "address"
        }
      ],
      "name": "OwnershipTransferred",
      "type": "event"
    },
    {
      "anonymous": false,
      "inputs": [
        {
          "indexed": true,
          "internalType": "address",
          "name": "implementation",
          "type": "address"
        }
      ],
      "name": "Upgraded",
      "type": "event"
    },
    {
      "inputs": [],
      "name": "initialize",
      "outputs": [],
      "stateMutability": "nonpayable",
      "type": "function"
    },
    {
      "inputs": [],
      "name": "owner",
      "outputs": [
        {
          "internalType": "address",
          "name": "",
          "type": "address"
        }
      ],
      "stateMutability": "view",
      "type": "function"
    },
    {
      "inputs": [],
      "name": "proxiableUUID",
      "outputs": [
        {
          "internalType": "bytes32",
          "name": "",
          "type": "bytes32"
        }
      ],
      "stateMutability": "view",
      "type": "function"
    },
    {
      "inputs": [],
      "name": "renounceOwnership",
      "outputs": [],
      "stateMutability": "nonpayable",
      "type": "function"
    },
    {
      "inputs": [
        {
          "internalType": "address",
          "name": "newOwner",
          "type": "address"
        }
      ],
      "name": "transferOwnership",
      "outputs": [],
      "stateMutability": "nonpayable",
      "type": "function"
    },
    {
      "inputs": [
        {
          "internalType": "address",
          "name": "newImplementation",
          "type": "address"
        }
      ],
      "name": "upgradeTo",
      "outputs": [],
      "stateMutability": "nonpayable",
      "type": "function"
    },
    {
      "inputs": [
        {
          "internalType": "address",
          "name": "newImplementation",
          "type": "address"
        },
        {
          "internalType": "bytes",
          "name": "data",
          "type": "bytes"
        }
      ],
      "name": "upgradeToAndCall",
      "outputs": [],
      "stateMutability": "payable",
      "type": "function"
    },
    {
      "inputs": [],
      "name": "value",
      "outputs": [
        {
          "internalType": "uint256",
          "name": "",
          "type": "uint256"
        }
      ],
      "stateMutability": "view",
      "type": "function"
    }
  ],
  "bytecode": "0x60a06040523060805234801561001457600080fd5b50608051610f3161004c6000396000818161016f015281816101f9015281816102ef01528181610374015261045e0152610f316000f3fe60806040526004361061007b5760003560e01c8063715018a61161004e578063715018a6146100f35780638129fc1c146101085780638da5cb5b1461011d578063f2fde38b1461014557600080fd5b80633659cfe6146100805780633fa4f245146100a25780634f1ef286146100cb57806352d1902d146100de575b600080fd5b34801561008c57600080fd5b506100a061009b366004610d3c565b610165565b005b3480156100ae57600080fd5b506100b860c95481565b6040519081526020015b60405180910390f35b6100a06100d9366004610d86565b6102e5565b3480156100ea57600080fd5b506100b8610451565b3480156100ff57600080fd5b506100a0610516565b34801561011457600080fd5b506100a061052a565b34801561012957600080fd5b506033546040516001600160a01b0390911681526020016100c2565b34801561015157600080fd5b506100a0610160366004610d3c565b610656565b6001600160a01b037f00000000000000000000000000000000000000000000000000000000000000001630036101f75760405162461bcd60e51b815260206004820152602c60248201527f46756e6374696f6e206d7573742062652063616c6c6564207468726f7567682060448201526b19195b1959d85d1958d85b1b60a21b60648201526084015b60405180910390fd5b7f00000000000000000000000000000000000000000000000000000000000000006001600160a01b03166102527f360894a13ba1a3210667c828492db98dca3e2076cc3735a920a3ca505d382bbc546001600160a01b031690565b6001600160a01b0316146102bd5760405162461bcd60e51b815260206004820152602c60248201527f46756e6374696f6e206d7573742062652063616c6c6564207468726f7567682060448201526b6163746976652070726f787960a01b60648201526084016101ee565b6102c6816106e3565b604080516000808252602082019092526102e2918391906106eb565b50565b6001600160a01b037f00000000000000000000000000000000000000000000000000000000000000001630036103725760405162461bcd60e51b815260206004820152602c60248201527f46756e6374696f6e206d7573742062652063616c6c6564207468726f7567682060448201526b19195b1959d85d1958d85b1b60a21b60648201526084016101ee565b7f00000000000000000000000000000000000000000000000000000000000000006001600160a01b03166103cd7f360894a13ba1a3210667c828492db98dca3e2076cc3735a920a3ca505d382bbc546001600160a01b031690565b6001600160a01b0316146104385760405162461bcd60e51b815260206004820152602c60248201527f46756e6374696f6e206d7573742062652063616c6c6564207468726f7567682060448201526b6163746976652070726f787960a01b60648201526084016101ee565b610441826106e3565b61044d828260016106eb565b5050565b6000306001600160a01b037f000000000000000000000000000000000000000000000000000000000000000016146104f15760405162461bcd60e51b815260206004820152603860248201527f555550535570677261646561626c653a206d757374206e6f742062652063616c60448201527f6c6564207468726f7567682064656c656761746563616c6c000000000000000060648201526084016101ee565b507f360894a13ba1a3210667c828492db98dca3e2076cc3735a920a3ca505d382bbc90565b61051e610890565b61052860006108ea565b565b600054610100900460ff161580801561054a5750600054600160ff909116105b806105645750303b158015610564575060005460ff166001145b6105d65760405162461bcd60e51b815260206004820152602e60248201527f496e697469616c697a61626c653a20636f6e747261637420697320616c72656160448201527f647920696e697469616c697a656400000000000000000000000000000000000060648201526084016101ee565b6000805460ff1916600117905580156105f9576000805461ff0019166101001790555b610601610949565b6106096109bc565b603260c95580156102e2576000805461ff0019169055604051600181527f7f26b83ff96e1f2b6a682f133852f6798a09c465da95921460cefb38474024989060200160405180910390a150565b61065e610890565b6001600160a01b0381166106da5760405162461bcd60e51b815260206004820152602660248201527f4f776e61626c653a206e6577206f776e657220697320746865207a65726f206160448201527f646472657373000000000000000000000000000000000000000000000000000060648201526084016101ee565b6102e2816108ea565b6102e2610890565b7f4910fdfa16fed3260ed0e7147f7cc6da11a60208b5b9406d12a635614ffd91435460ff16156107235761071e83610a27565b505050565b826001600160a01b03166352d1902d6040518163ffffffff1660e01b8152600401602060405180830381865afa92505050801561077d575060408051601f3d908101601f1916820190925261077a91810190610e48565b60015b6107ef5760405162461bcd60e51b815260206004820152602e60248201527f45524331393637557067726164653a206e657720696d706c656d656e7461746960448201527f6f6e206973206e6f74205555505300000000000000000000000000000000000060648201526084016101ee565b7f360894a13ba1a3210667c828492db98dca3e2076cc3735a920a3ca505d382bbc81146108845760405162461bcd60e51b815260206004820152602960248201527f45524331393637557067726164653a20756e737570706f727465642070726f7860448201527f6961626c6555554944000000000000000000000000000000000000000000000060648201526084016101ee565b5061071e838383610af2565b6033546001600160a01b031633146105285760405162461bcd60e51b815260206004820181905260248201527f4f776e61626c653a2063616c6c6572206973206e6f7420746865206f776e657260448201526064016101ee565b603380546001600160a01b0383811673ffffffffffffffffffffffffffffffffffffffff19831681179093556040519116919082907f8be0079c531659141344cd1fd0a4f28419497f9722a3daafe3b4186f6b6457e090600090a35050565b600054610100900460ff166109b45760405162461bcd60e51b815260206004820152602b60248201527f496e697469616c697a61626c653a20636f6e7472616374206973206e6f74206960448201526a6e697469616c697a696e6760a81b60648201526084016101ee565b610528610b1d565b600054610100900460ff166105285760405162461bcd60e51b815260206004820152602b60248201527f496e697469616c697a61626c653a20636f6e7472616374206973206e6f74206960448201526a6e697469616c697a696e6760a81b60648201526084016101ee565b6001600160a01b0381163b610aa45760405162461bcd60e51b815260206004820152602d60248201527f455243313936373a206e657720696d706c656d656e746174696f6e206973206e60448201527f6f74206120636f6e74726163740000000000000000000000000000000000000060648201526084016101ee565b7f360894a13ba1a3210667c828492db98dca3e2076cc3735a920a3ca505d382bbc805473ffffffffffffffffffffffffffffffffffffffff19166001600160a01b0392909216919091179055565b610afb83610b91565b600082511180610b085750805b1561071e57610b178383610bd1565b50505050565b600054610100900460ff16610b885760405162461bcd60e51b815260206004820152602b60248201527f496e697469616c697a61626c653a20636f6e7472616374206973206e6f74206960448201526a6e697469616c697a696e6760a81b60648201526084016101ee565b610528336108ea565b610b9a81610a27565b6040516001600160a01b038216907fbc7cd75a20ee27fd9adebab32041f755214dbc6bffa90cc0225b39da2e5c2d3b90600090a250565b6060610bf68383604051806060016040528060278152602001610ed560279139610bfd565b9392505050565b6060600080856001600160a01b031685604051610c1a9190610e85565b600060405180830381855af49150503d8060008114610c55576040519150601f19603f3d011682016040523d82523d6000602084013e610c5a565b606091505b5091509150610c6b86838387610c75565b9695505050505050565b60608315610ce4578251600003610cdd576001600160a01b0385163b610cdd5760405162461bcd60e51b815260206004820152601d60248201527f416464726573733a2063616c6c20746f206e6f6e2d636f6e747261637400000060448201526064016101ee565b5081610cee565b610cee8383610cf6565b949350505050565b815115610d065781518083602001fd5b8060405162461bcd60e51b81526004016101ee9190610ea1565b80356001600160a01b0381168114610d3757600080fd5b919050565b600060208284031215610d4e57600080fd5b610bf682610d20565b7f4e487b7100000000000000000000000000000000000000000000000000000000600052604160045260246000fd5b60008060408385031215610d9957600080fd5b610da283610d20565b9150602083013567ffffffffffffffff80821115610dbf57600080fd5b818501915085601f830112610dd357600080fd5b813581811115610de557610de5610d57565b604051601f8201601f19908116603f01168101908382118183101715610e0d57610e0d610d57565b81604052828152886020848701011115610e2657600080fd5b8260208601602083013760006020848301015280955050505050509250929050565b600060208284031215610e5a57600080fd5b5051919050565b60005b83811015610e7c578181015183820152602001610e64565b50506000910152565b60008251610e97818460208701610e61565b9190910192915050565b6020815260008251806020840152610ec0816040850160208701610e61565b601f01601f1916919091016040019291505056fe416464726573733a206c6f772d6c6576656c2064656c65676174652063616c6c206661696c6564a264697066735822122002bdb3f4ea903f2e415cb7299b2c0530c46e63dea91bca19ce48880fe461dc5564736f6c63430008140033",
  "linkReferences": {},
  "deployedLinkReferences": {}
}